:100000000C9419130C944A130C944A130C944A132D
:100010000C944A130C944A130C944A130C944A13EC
:100020000C944A130C942ABD0C9420BD0C94BCBCB7
:100030000C944A130C944A130C944A130C944A13CC
:100040000C944A130C946D9B0C944A130C944A1311
:100050000C944A130C944A130C94B0B20C94086597
:100060000C944A130C9461610C944A130C944A1337
:100070000C944A130C944A130C944A130C944A138C
:100080000C944A130C944A130C944A130C944A137C
:100090000C9453610C944A130C944A130C944A1315
:1000A0000C944A130C944A130C944A130C944A135C
:1000B0000C944A130C944A130C944A130C944A134C
:1000C0000C944A130C944A130C944A130C94A66192
:1000D0000C944A130C944A130C9445610C944A13E3
:1000E0000C944A134F4A584A5C4A624A6C4A764A10
:1000F000804A3953944A9E4AA74AB04AC44ACA4AD7
:10010000F54A0D4B3953395339532A4B304B4A4B2F
:1001100039535B4BC94CD24CDD4CE64CF14C4C4D49
:1001200039533953395339533953A74DB04DB94D1C
:10013000C24DCB4DD44DDD4DE64D39533953395376
:10014000395339533953EF4D8A4AFA4D084E3953D2
:10015000164E274E384E3953395339533953395384
:1001600039533953834B874B8B4B474C604C576308
:100170005A6349634D63536391635E63626368636B
:100180006C63706376637A637E6391638463886370
:100190008C63246429642E6438644264BB644C64B8
:1001A00054645C64666470647A6489649364BB6458
:1001B0009D64A764B164084AD73B3BCE016E84BC02
:1001C000BFFDC12F3D6C74319ABD56833DDA3D00B1
:1001D000C77F11BED9E4BB4C3E916BAAAABE0000FA
:1001E00000803F05A84CCDB2D44EB93836A9020CD8
:1001F00050B9918688083CA6AAAA2ABE00000080B1
:100200003F00434F4D4D554E49434154494F4E00D9
:1002100044525952554E004552524F525300494E86
:10022000464F004543484F0047322F473320626115
:100230006420706172616D65746572730A00205A82
:100240003A200020593A200042656420583A2000A4
:10025000456E642066696C65206C6973740A00429F
:100260006567696E2066696C65206C6973740A0045
:100270005344207072696E74696E67206279746588
:1002800020004E6F74205344207072696E74696E42
:10029000670A0046696C652064656C657465643A3C
:1002A0000044656C6574696F6E206661696C656495
:1002B0002C2046696C653A20006F70656E2066617F
:1002C000696C65642C2046696C653A200025697369
:1002D0000025696D20256973002569682025696DF1
:1002E0002025697300256964202569682025696DCA
:1002F00020256973002569792025696420256968AE
:100300002025696D20256973005072696E74207410
:10031000696D653A200050726F746563746564207E
:1003200050696E0A0023021E021702100202026FB9
:1003300066660044454255473A004B494C4C45449B
:100340002E20004D3131332053006F6B004361701C
:100350003A454D455247454E43595F5041525345EA
:10036000523A300A004361703A434153455F4C4969
:100370004748545F4252494748544E4553533A30D8
:100380000A004361703A544F47474C455F4C494718
:100390004854533A300A004361703A534F46545719
:1003A0004152455F504F5745523A300A0043617001
:1003B0003A4C4556454C494E475F444154413A31C9
:1003C0000A004361703A5A5F50524F42453A310A2F
:1003D000004361703A4155544F4C4556454C3A31B3
:1003E0000A004361703A5052494E545F4A4F423AB4
:1003F000310A004361703A50524F47524553533AC5
:10040000300A004361703A4155544F5245504F52A3
:10041000545F54454D503A310A004361703A4545A6
:1004200050524F4D3A310A004649524D57415245BC
:100430005F4E414D453A4D61726C696E20312E31EF
:100440002E3420284769746875622920534F55520D
:1004500043455F434F44455F55524C3A687474704E
:10046000733A2F2F6769746875622E636F6D2F4D15
:1004700061726C696E4669726D776172652F4D614C
:10048000726C696E2050524F544F434F4C5F56452B
:100490005253494F4E3A312E30204D414348494E38
:1004A000455F545950453A4933504C5553204558AF
:1004B0005452554445525F434F554E543A3120559E
:1004C0005549443A63656465326132662D34316161
:1004D000322D343734382D396231322D633535635E
:1004E00036326633363766660A002F2F20007A5F71
:1004F0006D696E3A2000795F6D696E3A2000785F11
:100500006D696E3A20005265706F7274696E672073
:10051000656E6473746F70207374617475730A0010
:1005200053657474696E672054726176656C2041FE
:100530006363656C65726174696F6E3A2000536520
:100540007474696E672052657472616374204163CC
:1005500063656C65726174696F6E3A2000536574EF
:1005600074696E67205072696E7420416363656CB4
:1005700065726174696F6E3A200053657474696EB8
:1005800067205072696E7420616E642054726176C7
:10059000656C20416363656C65726174696F6E3A66
:1005A0002000205A00205900580020204D61783A40
:1005B0002000205A00205900580020204D696E3A32
:1005C00020004F6E20004F666600536F66742065F2
:1005D0006E6473746F70733A200000013D3E3C36C8
:1005E000FF40410218FF43454206FFFFFF0305FF9E
:1005F000FFFF3A3B39FFFF034404FF37FFFFFFFFD4
:10060000FFFF20643A0020693A0020703A0023641A
:100610006566696E65202044454641554C545F4BE4
:1006200064200023646566696E6520204445464168
:10063000554C545F4B69200023646566696E6520E4
:100640002044454641554C545F4B7020005049446E
:10065000204175746F74756E652066696E69736884
:100660006564212050757420746865206C61737412
:10067000204B702C204B6920616E64204B642063FA
:100680006F6E7374616E74732066726F6D20626535
:100690006C6F7720696E746F20436F6E6669677543
:1006A000726174696F6E2E680A005049442041756A
:1006B000746F74756E65206661696C656421207461
:1006C000696D656F757400504944204175746F748D
:1006D000756E65206661696C6564212074696D655D
:1006E0006F75740A00504944204175746F74756EBB
:1006F00065206661696C6564212054656D70657262
:10070000617475726520746F6F2068696768005046
:100710004944204175746F74756E65206661696C1B
:100720006564212054656D70657261747572652011
:10073000746F6F20686967680A00204B643A200074
:10074000204B693A2000204B703A20000A20436C6D
:10075000617373696320504944200A002054753A3C
:100760002000204B753A2000206D61783A2000204F
:100770006D696E3A200020643A200020626961733E
:100780003A2000426564204C6576656C696E67208E
:10079000004661696C656420746F20656E61626CEF
:1007A0006520426564204C6576656C696E670A0059
:1007B000426564204C6576656C20436F7272656398
:1007C00074696F6E204D61747269783A00000000A0
:1007D000000000000000000000546F6F206661728E
:1007E0002066726F6D207265666572656E63652046
:1007F000706F696E740A00204A756E2031322032A3
:100800003031382030393A35303A35330064657646
:10081000656C6F00706572202D592E00532E5A2E74
:100820000061626C5F656E61626C65640061626C40
:100830005F64697361626C65003A20007A5F6D697C
:100840006E3A20202D3230207A5F6D61783A202078
:100850003230005A204F666673657420004E6F2058
:1008600063617365206C696768740A00556E6B6E0E
:100870006F776E20636F6D6D616E643A2022002089
:100880007A3A0020793A00783A00206669727374E7
:100890000A005A0059005800486F6D6520004D61EC
:1008A00072747269782073617665206F6B2E0A000E
:1008B0000A0A426564204C6576656C20436F72724B
:1008C000656374696F6E204D61747269783A0020B7
:1008D0002B000A436F72726563746564204265641D
:1008E000204865696768742076732E20426564200D
:1008F000546F706F6C6F67793A0A00202B000A42C0
:1009000065642048656967687420546F706F67720A
:10091000617068793A0A2020202B2D2D2D2042412C
:10092000434B202D2D2B0A2020207C20202020200E
:100930002020202020207C0A204C207C20202020E9
:10094000282B29202020207C20520A2045207C2092
:10095000202020202020202020207C20490A204602
:10096000207C20282D29204E20282B29207C204740
:100970000A2054207C2020202020202020202020FD
:100980007C20480A2020207C20202020282D29207F
:100990002020207C20540A2020207C202020202081
:1009A0002020202020207C0A2020204F2D2D204692
:1009B000524F4E54202D2D2B0A2028302C30290A3E
:1009C000004D65616E206F662073616D706C6564AB
:1009D00020706F696E74733A200020643A20002002
:1009E000623A200045716E20636F656666696369CF
:1009F000656E74733A20613A200052756E6E696EAE
:100A00006720696E204452592D52554E206D6F64F7
:100A1000650A00473239204175746F2042656420B1
:100A20004C6576656C696E670A0028422961636BC4
:100A300000284629726F6E7400285229696768740D
:100A400000284C29656674003F4E756D6265722002
:100A50006F662070726F626520706F696E747320AC
:100A6000697320696D706C61757369626C652028AB
:100A700032206D696E696D756D292E0A003F28560A
:100A8000296572626F7365206C6576656C20697389
:100A900020696D706C61757369626C652028302DFA
:100AA00034292E0A00534420636172642072656DFC
:100AB0006F7665642E005344206361726420696E12
:100AC0007365727465642E00546172676574206684
:100AD000696C65206F70656E206661696C2E0052CE
:100AE000656672657368206F6B2E0A004D35303075
:100AF000004732380047323900473238004D393923
:100B000039206F6B2E0A0047323820583020593078
:100B100000473238205A30004732382059300047D9
:100B200032382058300047323800556E6B6E6F7780
:100B30006E2E004D35303000656E717565756569D6
:100B40006E672022004E6F204C696E65204E756DD9
:100B5000626572207769746820636865636B73757A
:100B60006D2C204C617374204C696E653A20004BEB
:100B7000494C4C45442E20005072696E74657220B9
:100B800073746F707065642064756520746F206580
:100B900072726F72732E20466978207468652065C2
:100BA00072726F7220616E6420757365204D3939E1
:100BB0003920746F20726573746172742E2028540A
:100BC000656D7065726174757265206973207265F8
:100BD0007365742E20536574206974206166746592
:100BE000722072657374617274696E67290A004EAF
:100BF0006F20436865636B73756D20776974682037
:100C00006C696E65206E756D6265722C204C617327
:100C100074204C696E653A2000636865636B737578
:100C20006D206D69736D617463682C204C61737401
:100C3000204C696E653A20004C696E65204E756DDA
:100C4000626572206973206E6F74204C617374202A
:100C50004C696E65204E756D6265722B312C204C8F
:100C6000617374204C696E653A20004D313130005B
:100C70004D3331004D383420582059205A2045003A
:100C800053442072656164206572726F720A004479
:100C90006F6E65207072696E74696E672066696C2C
:100CA000650A0020496E76616C696420657874720B
:100CB0007564657220000000000000000000000064
:100CC0000000000048430000484300003443207007
:100CD0006F736974696F6E206F7574206F66207210
:100CE000616E67652E0A003F50726F6265200000DA
:100CF0000020002300260029002C002F00320000D5
:100D000001000003010601090105050505070508A5
:100D1000080808020202020A0A080804040404017E
:100D200001010101010101030303030303030304A0
:100D30000707070C0C0C0C0C0C0C0C020202020630
:100D4000060606060606060B0B0B0B0B0B0B0B0120
:100D500002102020080810204010204080020102CC
:100D60000108040201010204081020408080402094
:100D700010080402018004020180402010080402CF
:100D8000010804020101020408102040800102044D
:100D9000081020408000000A0B02090C0D0E080705
:100DA000030401000000000000000000000000003B
:100DB0000000000000000000000000000000000033
:100DC00000121110000000000000000000000000F0
:100DD00000000000000000000000004B494C4C45A2
:100DE000442E2000202D20496E76616C69642065B8
:100DF00078747275646572206E756D6265722021FB
:100E000000202D20496E76616C69642065787472CB
:100E100075646572206E756D62657220210A00200E
:100E200020506C616E6E65724275666665724279BD
:100E30007465733A20002046726565204D656D6FBC
:100E400072793A2000436F6D70696C65643A204A8C
:100E5000756E20313220323031380A00207C20413A
:100E60007574686F723A20286E6F6E652C20646509
:100E70006661756C7420636F6E666967290A00325B
:100E80003031372D30372D30342031323A30300088
:100E9000204C61737420557064617465643A20005D
:100EA000312E312E340A004D61726C696E00205370
:100EB0006F6674776172652052657365740A0020ED
:100EC0005761746368646F672052657365740A00C4
:100ED0002042726F776E206F75742052657365744F
:100EE0000A002045787465726E616C2052657365E6
:100EF000740A00506F77657255700A0073746172DE
:100F0000740A006572726F722077726974696E6715
:100F100020746F2066696C650A00205A3A002059D7
:100F20003A0020583A00656E6473746F70732068DD
:100F300069743A200053544F50207072696E74697E
:100F40006E670A004D6F76652061776179204F4B9F
:100F50002E0A004D6F7665206177617920582059FF
:100F60002E0A004D6F7665206177617920582C59E3
:100F70002E2E2E0053797374656D2073746F70205C
:100F8000666F722073687574646F776E2E00446F9D
:100F90006E6520736176696E672066696C652E0ADE
:100FA000004D323900000070420000704200002005
:100FB00042000000004578747275646500526573E4
:100FC000756D650000002100240027002A002D0017
:100FD0003000330001010000040107010A01000094
:100FE0002200250028002B002E00310034000201D1
:100FF0000000050108010B01504155534520505296
:10100000494E5420444F4E450A00455845204C4314
:101010004420494E534552542046494C414D454E7B
:1010200054320A00455845204C434420494E53450C
:1010300052542046494C414D454E54310A0020201F
:101040002046696C616D656E742072756E6F757483
:1010500034210A496E736572742066696C616D652E
:101060006E7420616E642070726573732062757493
:10107000746F6E20746F20636F6E74696E75652E69
:101080000A2057616974696E6720666F7220636811
:10109000616E67696E672066696C616D656E742E3E
:1010A00000090946696C616D656E742072756E6F1A
:1010B000757433210A5761697420666F72206669FE
:1010C0006C616D656E7420756E6C6F61642E0009C5
:1010D0000946696C616D656E742072756E6F75740A
:1010E00032210A5761697420666F722073746172CD
:1010F00074206F662066696C616D656E742063682C
:10110000616E67652E005741495420464F52205268
:10111000454C4F414420444F4E450A002020204674
:10112000696C616D656E742072756E6F75743621B1
:101130000A496E736572742066696C616D656E74C0
:1011400020616E6420707265737320627574746FB1
:101150006E20746F20636F6E74696E75652E0A2041
:1011600057616974696E6720666F72206368616E8B
:1011700067696E672066696C616D656E742E00200C
:101180002020202046696C616D656E742072756E3A
:101190006F757435210A546865206E6F7A7A6C65B4
:1011A0002068617320636F6F6C20646F776E2C70A2
:1011B0007265737320627574746F6E20746F207221
:1011C000656865617420746865206E6F7A7A6C65F5
:1011D0002E00455845205741495420464F5220463D
:1011E000494C414D454E542052454C4F41440A0014
:1011F00020202046696C616D656E742072756E6F7B
:1012000075743131210A5761697420666F722070DC
:1012100072696E7420746F20726573756D652E002F
:101220004348414E4745204F5054494F4E533A0092
:1012300020202046696C616D656E742072756E6F3A
:10124000757439210A5761697420666F7220666966
:101250006C616D656E7420657874727564652E00BE
:1012600045584520524553554D4520574149542036
:101270005741495420574149540A002020204669CB
:101280006C616D656E742072756E6F757438210AAD
:101290005761697420666F722066696C616D656E56
:1012A00074206C6F61642E0020202046696C616D93
:1012B000656E742072756E6F757437210A496E738E
:1012C0006572742066696C616D656E7420616E6410
:1012D00020707265737320627574746F6E20746F02
:1012E00020636F6E74696E75652E0A20576169748C
:1012F000696E6720666F72206368616E67696E67EA
:101300002066696C616D656E742E004558452052EB
:101310004553554D45205052494E540A004163747F
:101320006976652045787472756465723A20004D5F
:1013300031313033206F6B2E0A00534420726561C7
:1013400064206572726F720A006D6F7665207A2074
:101350006178697320616E64206520617869732EFD
:101360000A00536420696E6974206661696C2120EB
:10137000536F2063616E277420726573756D6520ED
:101380007072696E742E00536420696E69742066F1
:1013900061696C212E0A536F2063616E277420727D
:1013A0006573756D65207072696E742E004D3131F4
:1013B0003031206F6B2D2D0054617267657420668B
:1013C000696C65206F70656E206661696C2E004ED9
:1013D0006F207072696E74206E65656465642E009E
:1013E0004361726420696E6974206661696C004DA6
:1013F00031313031206661696C20666F7220636123
:10140000726420696E6974206661696C2E0A0050EE
:1014100072696E7420636F6E74696E756520667292
:101420006F6D206C61737420627265616B2E0A00AF
:101430004E4F206E65656420746F20636F6E746913
:101440006E756520746F207072696E742E0A004D7F
:1014500031313032207374617475733A31204669CA
:101460006C653A004D31313032207374617475739C
:101470003A300A004572726F722077726974696E31
:101480006720746F20454550524F4D210A00290AAC
:10149000002062797465733B20637263200053659A
:1014A0007474696E67732053746F726564202800CA
:1014B000202863616C63756C6174656429210A007E
:1014C00020213D2000454550524F4D20435243209E
:1014D0006D69736D61746368202D202873746F7259
:1014E0006564292000290A002062797465733B2015
:1014F00063726320002073746F7265642073657477
:1015000074696E67732072657472696576656420AC
:101510002800204D61726C696E3D563035290A00F5
:1015200028454550524F4D3D00454550524F4D20A6
:1015300076657273696F6E206D69736D617463682F
:1015400020007C3C3E5E2B3D3F2F5B5D3B2C2A22E6
:101550005C0024F4D43050C38E20C2A24017828B8A
:101560007011127A910D816CD90AA861E108C758EF
:101570006607615143061E4B5D05C145A7041A412C
:101580001104093D9803713931034036DB0265339C
:101590009102D4305402802E1D02632CEE01752A74
:1015A000C501B028A001102781018F2564012B24DB
:1015B0004B01E0223401AC211F018D200D01801F61
:1015C000FC00841EED00971DDF00B81CD200E61B56
:1015D000C600201BBC00641AB200B219A8000A1988
:1015E000A0006A189900D117910040178B00B5161A
:1015F000840031167E00B31579003A157300C714C4
:101600006F0058146A00EE136600881363002513F8
:101610005E00C7125B006C12570015125400C11116
:10162000510070114F0021114B00D61049008D1050
:1016300047004610440002104200C00F4000800FD7
:101640003E00420F3C00060F3B00CB0E3800930ECD
:1016500037005C0E3500270E3400F30D3200C10D4B
:101660003100900D3000600D2E00320D2D00050D63
:101670002C00D90C2B00AE0C2900850C29005C0C29
:101680002700350C27000E0C2600E80B2400C40BA5
:101690002400A00B23007D0B23005A0B2100390BE3
:1016A0002100180B2000F80A1F00D90A1E00BB0AEF
:1016B0001E009D0A1D00800A1D00630A1C00470AC7
:1016C0001B002C0A1B00110A1A00F7091A00DD0979
:1016D0001900C4091900AB091900920917007B0908
:1016E0001800630917004C09160036091600200976
:1016F00016000A091500F5081500E0081400CC08CA
:101700001400B8081400A4081400900813007D0801
:1017100012006B0813005808120046081200340823
:101720001100230811001208110001081100F00730
:101730001000E0071000D0071000C0071000B0072D
:101740000F00A107100091070E0083070F00740718
:101750000F0065070E0057070E0049070E003B07F4
:101760000D002E070E0020070D0013070D000607C1
:101770000D00F9060C00ED060D00E0060C00D40685
:101780000C00C8060C00BC060C00B0060C00A40639
:101790000B0099060C008D060B0082060B007706E5
:1017A0000B006C060B0061060A0057060B004C0686
:1017B0000A0042060A0038060A002E060A0024061D
:1017C0000A001A060A001006090007060A00FD05AD
:1017D0000900F4050900EB050900E2050900D90537
:1017E0000900D0050900C7050900BE050900B505B7
:1017F0000800AD050800A50509009C050800940532
:1018000008008C050800840508007C0508007405A4
:1018100008006C050700650508005D050700560512
:1018200008004E0507004705070040050800380579
:101830000700310507002A050700230507001C05DE
:101840000600160507000F0507000805060002053B
:101850000700FB040600F5040700EE040600E80498
:101860000600E2040700DB040600D5040600CF04EE
:101870000600C9040600C3040600BD040600B70440
:101880000600B1040500AC040600A6040600A0048E
:1018900005009B04060095040500900406008A04D8
:1018A000050085040500800406007A04050075041F
:1018B0000500700405006B04050066040500610462
:1018C00005005C04050057040500520405004D04A2
:1018D000050048040500430405003E0404003A04E2
:1018E000050035040500300404002C04050027041D
:1018F0000400230405001E0404001A040400160456
:101900000500110404000D0404000904050004048A
:10191000040000040400FC030400F8030400F403C2
:101920000400F0030400EC030400E8030400E403F3
:101930000400E0030400DC030400D8030400D40323
:101940000400D0030400CC030400C8030300C50353
:10195000030024F404D9201BC40C5C0E9804C409B1
:101960005F0265077101F405F900FB04B300480448
:101970008700C10369005803550003034500BE02F8
:101980003A008402310053022A0029022500040291
:101990002000E4011C00C8011900AF0117009801E4
:1019A0001400840113007101100061011000510145
:1019B0000E0043010D0036010B002B010B0020012E
:1019C0000B00150109000C01090003010800FB00D0
:1019D0000800F3000800EB000700E4000600DE004A
:1019E0000600D8000600D2000600CC000500C700A3
:1019F0000500C2000500BD000400B9000400B500E8
:101A00000400B1000400AD000400A9000400A5001A
:101A10000300A20003009F0004009B000300980045
:101A200003009500020093000300900003008D0066
:101A300002008B0003008800020086000200840080
:101A40000300810002007F0002007D0002007B0095
:101A500002007900020077000100760002007400A5
:101A6000020072000100710002006F0002006D00B0
:101A700001006C0002006A000100690002006700BA
:101A800001006600010065000100640002006200C0
:101A9000010061000100600001005F0002005D00C4
:101AA00001005C0001005B0001005A0001005900C8
:101AB00001005800010057000100560001005500C8
:101AC00001005400010053000000530001005200C7
:101AD000010051000100500001004F0001004E00C4
:101AE00000004E0001004D0001004C0001004B00C1
:101AF00000004B0001004A000100490001004800BD
:101B000000004800010047000100460000004600B8
:101B100001004500000045000100440001004300B1
:101B200000004300010042000000420001004100AB
:101B3000000041000100400001003F0000003F00A4
:101B400001003E0000003E0001003D0000003D009D
:101B500001003C0000003C0000003C0001003B0094
:101B600000003B0001003A0000003A00010039008B
:101B70000000390001003800000038000000380083
:101B80000100370000003700010036000000360079
:101B9000000036000100350000003500000035006F
:101BA0000100340000003400000034000100330064
:101BB000000033000000330001003200000032005A
:101BC000000032000100310000003100000031004F
:101BD00001003000000030000000300001002F0044
:101BE00000002F0000002F0000002F0001002E0039
:101BF00000002E0000002E0001002D0000002D002E
:101C000000002D0000002D0001002C0000002C0021
:101C100000002C0000002C0001002B0000002B0015
:101C200000002B0000002B0001002A0000002A0009
:101C300000002A0000002A000100290000002900FD
:101C400000002900000029000000290001002800F0
:101C500000002800000028000000280000002800E4
:101C600001002700000027000000270000002700D7
:101C700000002700010026000000260000002600CA
:101C800000002600000026000100250000002500BD
:101C900000002500000025000000250000002500B0
:101CA00001002400000024000000240000002400A3
:101CB0000000240001002300000023000000230096
:101CC0000000230000002300000023000000230088
:101CD000010022000000220000002200000022007B
:101CE000000022000000220001002100000021006D
:101CF0000000210000002100000021000000210060
:101D00000000210001002000000020000000200051
:101D10000000200000002000000020000000200043
:101D20000000200001001F0000001F0000001F0035
:101D300000001F0000001F0000001F0000001F0027
:101D400001001E0000001E0000001E0000001E001A
:101D500000004D383420582059205A2045004D327B
:101D600034004D3233202573006175746F25692E60
:101D7000670053442063617264206F6B0A006F70C8
:101D8000656E526F6F74206661696C65640A0076D7
:101D90006F6C756D652E696E6974206661696C651E
:101DA000640A00534420696E6974206661696C0A94
:101DB0000057726974696E6720746F2066696C657C
:101DC0003A20006F70656E206661696C65642C2036
:101DD00046696C653A20006F70656E206661696CBB
:101DE00065642C2046696C653A200046696C652064
:101DF00073656C65637465640A002053697A653A9B
:101E0000200046696C65206F70656E65643A20003D
:101E10006F70656E206661696C65642C2046696C24
:101E2000653A20002066696C653A20004E6F772085
:101E3000002220706F73002220706172656E743A08
:101E40002200535542524F5554494E452043414C70
:101E50004C207461726765743A22004B494C4C45C2
:101E6000442E2000547279696E6720746F2063617C
:101E70006C6C207375622D67636F64652066696C96
:101E80006573207769746820746F6F206D616E7957
:101E9000206C6576656C732E00747279696E6720AC
:101EA000746F2063616C6C207375622D67636F645F
:101EB000652066696C6573207769746820746F6F3C
:101EC000206D616E79206C6576656C732E204D41B6
:101ED00058206C6576656C2069733A004572726FA4
:101EE000723A0043616E6E6F74206F70656E20737E
:101EF000756264697220006563686F3A00544845F2
:101F0000524D414C2052554E41574159005468653D
:101F1000726D616C2052756E617761790042656403
:101F20002068656174206661696C2E0A5379737448
:101F3000656D2073746F702E0A506C656173652037
:101F400072657374617274206D616368696E652E69
:101F500000457874727564657220686561742066E6
:101F600061696C2E0A53797374656D2073746F7098
:101F70002E0A506C656173652072657374617274AA
:101F8000206D616368696E652E006265640A002CCD
:101F90002073797374656D2073746F70706564213C
:101FA000204865617465725F49443A200048656164
:101FB00074696E67206661696C6564004865617468
:101FC000696E67206661696C656400486561746963
:101FD0006E67206661696C65642E0A537973746557
:101FE0006D2073746F702E0048656174696E672090
:101FF0006661696C65640048656174696E67206636
:1020000061696C65640048656174696E672066612A
:10201000696C65642E0A53797374656D2073746FEF
:10202000702E0070012C0190012701B0012201C027
:10203000011D01F00118011002130130020E0160B0
:1020400002090190020401C002FF000003FA0040EF
:1020500003F5008003F000D003EB002004E60070DD
:1020600004E100E004DC004005D700C005D20040D8
:1020700006CD00D006C8008007C3003008BE00F0BF
:1020800008B900C009B400B00AAF00B00BAA00D074
:102090000CA500000EA000500F9B00C01096005031
:1020A00012910000148C00C0158700B0178200B098
:1020B000197D00D01B7800001E730040206E009038
:1020C000226900F024640040275F0090295A00E054
:1020D0002B5500102E500020304B0010324600E0EF
:1020E00033410090353C001037370070383200A083
:1020F000392D00B03A2800A03B2300603C1E0010A0
:102100003D1900903D1400103E0F00703E0A00C0C3
:102110003E0500003F0000403FFBFF803FF6FFC050
:102120003FF1FF4572723A204D494E54454D5020C3
:10213000424544004572723A204D494E54454D5037
:10214000004D494E54454D50207472696767657261
:102150006564004572723A204D415854454D5020F7
:10216000424544004572723A204D415854454D5005
:10217000004D415854454D5020747269676765722F
:10218000656400205A3A200020593A2000426564D4
:1021900020583A20006F6B00627573793A207061A5
:1021A0007573656420666F7220696E7075740A00BD
:1021B000627573793A2070617573656420666F7219
:1021C00020757365720A00627573793A2070726FB8
:1021D00063657373696E670A004B494C4C45442E26
:1021E00020004B696C6C20636175736564206279B3
:1021F00020746F6F206D75636820696E6163746908
:1022000076652074696D652E004B494C4C206361E6
:102210007573656420627920746F6F206D756368D3
:1022200020696E6163746976652074696D65202D1F
:102230002063757272656E7420636F6D6D616E647C
:102240003A20005072696E7465722068616C746522
:10225000642E206B696C6C28292063616C6C65644A
:10226000210A005361766520656E7669726F6E6D26
:10227000656E74204F4B2E2E2E00536176652065BF
:102280006E7669726F6E6D656E74204F4B2E2E2EBA
:1022900000506F77657220627265616B210A005091
:1022A0006F77657220627265616B2100FFFFFF0925
:1022B0000946696C616D656E742072756E6F757418
:1022C00031210A48656174696E67206E6F7A7A6C95
:1022D000650A506C6561736520776169742E2E2ED6
:1022E00000202F002042403A0020403A0020573A78
:1022F0000020573A00205A3A0020593A0020436FF4
:10230000756E7420583A0020453A00205A3A002051
:10231000593A00583A0048617264636F64656420FA
:1023200044656661756C742053657474696E677377
:10233000204C6F616465640A00E8030000E8030054
:102340000064000000E803000000009643000096CF
:10235000430000A0400000C8419A99A0429A99A069
:10236000420040C8439A99BC4220204D3835312064
:102370005A005A2D50726F6265204F6666736574FD
:1023800020286D6D293A0A002044002049002020B1
:102390004D333031205000504944207365747469C6
:1023A0006E67733A0A002046002042002048002051
:1023B000204D3134352053004D6174657269616C74
:1023C0002068656174757020706172616D657465F7
:1023D00072733A0A0020204D343230205300417588
:1023E000746F20426564204C6576656C696E673A4F
:1023F0000A00205A0020590020204D323036205843
:1024000000486F6D65206F66667365743A0A002038
:102410004500205A00205900205800204200205436
:102420000020204D323035205300416476616E63C8
:1024300065643A20533C6D696E5F666565647261E0
:1024400074653E20543C6D696E5F74726176656C94
:102450005F66656564726174653E20423C6D696EBD
:102460005F7365676D656E745F74696D655F6D73CD
:102470003E20583C6D61785F78795F6A65726B3E8B
:10248000205A3C6D61785F7A5F6A65726B3E2045C9
:102490003C6D61785F655F6A65726B3E0A0020542F
:1024A0000020520020204D32303420500041636320
:1024B000656C65726174696F6E2028756E697473DE
:1024C0002F7332293A20503C7072696E745F6163D9
:1024D00063656C3E20523C726574726163745F6127
:1024E0006363656C3E20543C74726176656C5F6119
:1024F0006363656C3E0A00204500205A00205900A5
:1025000020204D3230312058004D6178696D756D55
:1025100020416363656C65726174696F6E20287514
:102520006E6974732F7332293A0A00204500205ACD
:102530000020590020204D3230332058004D617862
:10254000696D756D206665656472617465732028B8
:10255000756E6974732F73293A0A00204500205A5A
:102560000020590020204D393220580053746570E6
:10257000732070657220756E69743A0A0020204DD0
:102580003230302044300A0020204D323030204498
:10259000002044697361626C65640A0046696C617D
:1025A0006D656E742073657474696E67733A00208C
:1025B000204D3134392043203B20556E69747320FF
:1025C000696E2043656C736975730A002020473279
:1025D00031202020203B20556E69747320696E20C5
:1025E0006D6D0A004D35303000526573656E643A8A
:1025F00020004E414E494E495459494E46CDCCCC0F
:102600003D0AD7233C17B7D13877CC2B329595E6C6
:10261000241FB14F0A000020410000C84200401CA6
:102620004620BCBE4CCA1B0E5AAEC59D7400B1D725
:1026300090D711241FBECFEFD1E2DEBFCDBF00E0A7
:102640000CBF13E0A0E0B2E0EEE9FFEC01E00BBF4D
:1026500002C007900D92A039B107D9F722E1A0E995
:10266000B3E001C01D92A23CB207E1F713E1C8E15B
:10267000D3E100E006C021970109802FFE010E94EE
:1026800098DAC731D10780E00807A9F70E94E3CFA5
:102690000C94BDE70C9400002F923F924F925F92F2
:1026A0006F927F928F929F92AF92BF92CF92DF9262
:1026B000EF92FF920F931F93CF93DF93CDB7DEB7C7
:1026C000C359D1090FB6F894DEBF0FBECDBFE0915C
:1026D0003E0620E4E29FF0011124E25CFB4F808182
:1026E000813091F4BF016F5F7F4F80E090E0DB01AC
:1026F0004D91BD019C012454394FD9014C93019651
:1027000084309105A1F708C01092BC061092BD0656
:102710001092BE061092BF0610828581181614F022
:10272000809300028F010A5F1F4F8091C00680FFD7
:102730002EC0E7EFFEE184917F01BFEFEB1AFB0AA9
:10274000882321F00E94DD5BF701F5CF8091000224
:102750000E94DD5B8AE00E94DD5BE7EFFEE1849191
:102760007F012FEFE21AF20A811102C0780104C042
:102770000E94DD5BF701F3CFD7018D917D018823A6
:1027800019F00E94DD5BF8CF8AE00E94DD5B81E0FA
:1027900090E090935D1280935C12C8010E9462CC1D
:1027A0008091A7128D3409F4C5C7843511F40C94B7
:1027B0002E2D873411F00C94332D8091A512909119
:1027C000A6128C31910509F481C684F484309105F8
:1027D00044F4823091050CF08BC097FF26C00C9416
:1027E0004D2D049709F434C60C944D2D8232910579
:1027F00009F475C64CF48D31910509F46CC64E97F9
:1028000009F487C60C944D2D8B35910509F408C742
:102810008C35910509F409C78A35910511F00C949E
:102820004D2D1092A6030C944D2D80910302882308
:1028300011F40C944D2D0E94615A809168028823F6
:1028400021F08CE692E10E944ABB0E94F45A20914A
:102850006C1230916D1240916E1250916F12609116
:10286000BA117091BB118091BC119091BD110E9461
:10287000A7E381111DC02091701230917112409117
:102880007212509173126091BE117091BF118091BC
:10289000C0119091C1110E94A7E3811109C06091FC
:1028A0004F027091500280915102909152021AC0D1
:1028B0006091450270914602072E000C880B990B1F
:1028C0000E94ADE320914F0230915002409151029D
:1028D000509152020E940CE42AE037ED43E25CE39F
:1028E0000E940CE40E946E560E9464560C944D2D7A
:1028F00020910302222311F40C944D2D11E0029734
:1029000009F010E00E94615A82E50E94555A88231E
:1029100009F452C10E94F3596B017C014090BA1135
:102920005090BB116090BC117090BD112091BE11F0
:102930003091BF114091C0115091C1112BAF3CAFEC
:102940004DAF5EAF80916C1290916D12A0916E129E
:10295000B0916F1223968CAF9DAFAEAFBFAF2397F0
:102960002091701230917112409172125091731235
:102970002B962CAF3DAF4EAF5FAF2B9720E030E0F2
:10298000A901C701B6010E94A7E3882309F446C53F
:10299000A301920123966CAD7DAD8EAD9FAD2397C3
:1029A0000E94A7E381110FC02BAD3CAD4DAD5EADD4
:1029B0002B966CAD7DAD8EAD9FAD2B970E94A7E39E
:1029C000882309F42BC520E030E0A901C701B60136
:1029D0000E94A7E3881F8827881F18130BC080E078
:1029E00090E0A0E8BFE367968CAF9DAFAEAFBFAFFE
:1029F00067970AC020E030E040E85FEB67962CAFB5
:102A00003DAF4EAF5FAF6797A301920123966CADC8
:102A10007DAD8EAD9FAD23970E94A0DA2F966CAF4F
:102A20007DAF8EAF9FAF2F972BAD3CAD4DAD5EAD63
:102A30002B966CAD7DAD8EAD9FAD2B970E94A0DA2D
:102A400063966CAF7DAF8EAF9FAF63972F962CAD23
:102A50003DAD4EAD5FAD2F97CA01B9010E940CE4A8
:102A60004B015C0163962CAD3DAD4EAD5FAD639700
:102A7000CA01B9010E940CE49B01AC01C501B4017B
:102A80000E94A1DA0E9433DD27966CAF7DAF8EAF36
:102A90009FAF279720E030E040E05FE30E940CE426
:102AA0004B015C01A7019601C701B6010E940CE42D
:102AB0006B017C01A5019401C501B4010E940CE4E5
:102AC0009B01AC01C701B6010E94A0DA0E9433DD70
:102AD0009B01AC0167966CAD7DAD8EAD9FAD6797E8
:102AE0000E940CE44B015C0123962CAD3DAD4EAD34
:102AF0005FAD2397C301B2010E94A1DA20E030E06C
:102B000040E05FE30E940CE46B017C0163966CADD6
:102B10007DAD8EAD9FAD6397905827962CAD3DADA2
:102B20004EAD5FAD27970E948EDB9B01AC01C501C6
:102B3000B4010E940CE49B01AC01C701B6010E94E4
:102B4000A1DAA30192010E94A0DA6B017C012B960D
:102B50002CAD3DAD4EAD5FAD2B976BAD7CAD8DAD6E
:102B60009EAD0E94A1DA20E030E040E05FE30E94E9
:102B70000CE42B013C0127962CAD3DAD4EAD5FAD75
:102B800027972F966CAD7DAD8EAD9FAD2F970E9490
:102B90008EDB9B01AC01C501B4010E940CE49B01DA
:102BA000AC01C301B2010E94A1DA2BAD3CAD4DAD29
:102BB0005EAD0E94A0DA14C089E40E94555A8823B1
:102BC00029F00E94F3596B017C0103C0C12CD12C68
:102BD00076018AE40E94555A8823F9F00E94F3593D
:102BE0002B966CAF7DAF8EAF9FAF2B9720E030E080
:102BF000A901C701B6010E94A7E381111EC020E010
:102C000030E0A9012B966CAD7DAD8EAD9FAD2B97BD
:102C10000E94A7E3811111C001C420E030E0A901A6
:102C2000C701B6010E94A7E3882309F4F7C32B96D6
:102C30001CAE1DAE1EAE1FAE2B97D701C601B058FD
:102C40008BAF9CAFADAFBEAF2B962CAD3DAD4EADB7
:102C50005FAD2B97505823962CAF3DAF4EAF5FAF73
:102C600023979C01AD01BC01CD010E940CE44B01F6
:102C70005C0123962CAD3DAD4EAD5FAD2397CA01EF
:102C8000B9010E940CE49B01AC01C501B4010E9492
:102C9000A1DA0E9433DDA3966CAF7DAF8EAF9FAFFC
:102CA000A3978091BA119091BB11A091BC11B091E2
:102CB000BD1127968CAF9DAFAEAFBFAF2797A701D1
:102CC0009601BC01CD010E94A1DA67966CAF7DAF81
:102CD0008EAF9FAF67972091BE113091BF11409189
:102CE000C0115091C1112F962CAF3DAF4EAF5FAFC9
:102CF0002F972B962CAD3DAD4EAD5FAD2B972F96FC
:102D00006CAD7DAD8EAD9FAD2F970E94A1DAAB96D5
:102D10006CAF7DAF8EAF9FAFAB9780916C129091EF
:102D20006D12A0916E12B0916F126B968CAF9DAF29
:102D3000AEAFBFAF6B9767962CAD3DAD4EAD5FADFF
:102D40006797BC01CD010E94A0DA6B017C01209144
:102D500070123091711240917212509173126F96ED
:102D60002CAF3DAF4EAF5FAF6F97AB962CAD3DAD87
:102D70004EAD5FADAB976F966CAD7DAD8EAD9FAD3B
:102D80006F970E94A0DA4B015C018091C211909173
:102D9000C311A091C411B091C511AF968CAF9DAF76
:102DA000AEAFBFAFAF979C01AD016091741270914F
:102DB000751280917612909177120E94A0DA639634
:102DC0006CAF7DAF8EAF9FAF63972091781230913B
:102DD000791240917A1250917B12A7962CAF3DAF99
:102DE0004EAF5FAFA7978091C6119091C711A09188
:102DF000C811B091C911E3968CAF9DAFAEAFBFAF14
:102E0000E397A70196016BAD7CAD8DAD9EAD0E94A1
:102E10000CE42B013C01A501940123966CAD7DAD22
:102E20008EAD9FAD23970E940CE49B01AC01C301C2
:102E3000B2010E94A1DA2B013C01A50194016BAD06
:102E40007CAD8DAD9EAD0E940CE44B015C01A701F1
:102E5000960123966CAD7DAD8EAD9FAD23970E94FC
:102E60000CE49B01AC01C501B4010E94A0DAA301EE
:102E700092010E941FDB6B017C0120E030E0A90180
:102E80000E94A7E387FF0AC02BED3FE049EC50E426
:102E9000C701B6010E94A1DA6B017C01112351F038
:102EA0002BED3FE049EC50E4C701B6010E94A0DAE7
:102EB0006B017C0120E030E0A901C701B6010E944E
:102EC000A7E3811128C06B962CAD3DAD4EAD5FAD33
:102ED0006B9727966CAD7DAD8EAD9FAD27970E9409
:102EE000A7E3811118C06F962CAD3DAD4EAD5FAD1F
:102EF0006F972F966CAD7DAD8EAD9FAD2F970E94D5
:102F0000A7E3811108C05BEDC52E5FE0D52E59EC1B
:102F1000E52E50E4F52EA3962CAD3DAD4EAD5FAD44
:102F2000A397C701B6010E940CE49B01AC010E946B
:102F30000CE44B015C0163962CAD3DAD4EAD5FAD35
:102F40006397CA01B9010E940CE49B01AC01C50161
:102F5000B4010E94A1DA0E9433DD4B015C012FE62F
:102F600032E143E85AE30E94A7E387FD53C2C5015B
:102F7000B4010E9434DC0E9405DC2D967FAF6EAF59
:102F80002D97DB01AB2B31F4E1E0F0E02D96FFAFA4
:102F9000EEAF2D972D962EAD3FAD2D97B90180E068
:102FA00090E00E94ABE34B015C019B01AC01C701C7
:102FB000B6010E948EDB27966CAF7DAF8EAF9FAFC0
:102FC0002797A501940163966CAD7DAD8EAD9FAD45
:102FD00063970E948EDBA3966CAF7DAF8EAF9FAFE1
:102FE000A397E3962CAD3DAD4EAD5FADE397A796AD
:102FF0006CAD7DAD8EAD9FADA7970E94A0DAA50107
:1030000094010E948EDBA7966CAF7DAF8EAF9FAF11
:10301000A79727962CAD3DAD4EAD5FAD2797CA0162
:10302000B9010E940CE420E030E040E05FE30E9440
:103030000CE49B01AC0160E070E080E89FE30E943B
:10304000A0DA63966CAF7DAF8EAF9FAF6397AF96FC
:103050008CAD9DADAEADBFADAF9789879A87AB877D
:10306000BC87E3962CAD3DAD4EAD5FADE3972D87AC
:103070003E874F87588B6091450270914602072E1C
:10308000000C880B990B0E94ADE320914F02309108
:10309000500240915102509152020E940CE42AE0E9
:1030A00037ED43E25CE30E940CE46B966CAF7DAFBE
:1030B0008EAF9FAF6B970E94FC649B01AC012853BD
:1030C0003F4F4F4F5F4F6F962CAF3DAF4EAF5FAF4F
:1030D0006F974BAC5CAC6DAC7EAC22242394312C4E
:1030E00049E1D42E2D964EAD5FAD2D9724163506B1
:1030F00009F44CC10E943FB40E94FC64DC01CB0186
:103100006F962CAD3DAD4EAD5FAD6F97821B930BAF
:10311000A40BB50BB7FD11C00E94FC649B01AC0170
:1031200028533F4F4F4F5F4F6F962CAF3DAF4EAF81
:103130005FAF6F9780E00E9476BDDA94DD2009F4DE
:103140004BC063962CAD3DAD4EAD5FAD63972396FE
:103150006CAD7DAD8EAD9FAD23970E940CE44B010D
:103160005C0127962CAD3DAD4EAD5FAD2797B2010A
:10317000C3010E940CE4A50194010E94A1DA7B0125
:103180008C0163962CAD3DAD4EAD5FAD6397B20142
:10319000C3010E940CE44B015C0127962CAD3DADB0
:1031A0004EAD5FAD279723966CAD7DAD8EAD9FADD7
:1031B00023970E940CE49B01AC01C501B4010E945D
:1031C000A0DA2B013C01C701D80123968CAF9DAF3B
:1031D000AEAFBFAF239757C0B10180E090E00E942F
:1031E000ABE327962CAD3DAD4EAD5FAD27970E946A
:1031F0000CE44B015C010E948BDB6B017C01C5017F
:10320000B4010E9428DD4B015C01A70196016BAD62
:103210007CAD8DAD9EAD0E940CE42B013C01A5015F
:1032200094012B966CAD7DAD8EAD9FAD2B970E941A
:103230000CE49B01AC01C301B2010E94A1DA2B0195
:103240003C01A50194016BAD7CAD8DAD9EAD0E949E
:103250000CE44B015C01A70196012B966CAD7DAD92
:103260008EAD9FAD2B970E940CE49B01AC01C50174
:10327000B4010E94A0DA23966CAF7DAF8EAF9FAFF2
:10328000239729E1D22E9201A30167966CAD7DAD03
:103290008EAD9FAD67970E94A1DA69837A838B8395
:1032A0009C8323962CAD3DAD4EAD5FAD2397AB9681
:1032B0006CAD7DAD8EAD9FADAB970E94A1DA6D83F5
:1032C0007E838F839887A3962CAD3DAD4EAD5FADC9
:1032D000A39769857A858B859C850E94A1DA698789
:1032E0007A878B879C87A7962CAD3DAD4EAD5FADA1
:1032F000A7976D857E858F8598890E94A1DA6D8755
:103300007E878F87988B80916802882321F0CE0179
:1033100001960E944ABBC090470689819A81AB8181
:10332000BC8188A399A3AAA3BBA38D819E81AF81F1
:10333000B8858CA39DA3AEA3BFA389859A85AB85D1
:10334000BC8588A799A7AAA7BBA7AE01485D5F4F18
:10335000BE016C5D7F4FCE0180960E9424996B96D2
:10336000ECACFDAC0EAD1FAD6B979E01235F3F4FE4
:10337000AE01485D5F4FBE016C5D7F4FCE01809610
:103380000E94A08B3FEF231A330AACCEC0904706B1
:1033900080916C1290916D12A0916E12B0916F128B
:1033A00088A399A3AAA3BBA38091701290917112D4
:1033B000A0917212B09173128CA39DA3AEA3BFA370
:1033C0008091741290917512A0917612B09177123B
:1033D00088A799A7AAA7BBA7AE01485D5F4FBE010A
:1033E0006C5D7F4FCE0180960E9424996B96ECAC69
:1033F000FDAC0EAD1FAD6B9728E732E1AE01485D25
:103400005F4FBE016C5D7F4FCE0180960E94A08B06
:103410000E9464560E94F45A0C944D2DECEDFEE18E
:1034200084918F010F5F1F4F882321F00E94DD5B85
:10343000F801F6CFE8E2F2E084918F010F5F1F4FB1
:10344000882311F40C944D2D0E94DD5BF801F4CF1C
:1034500080E50E94555A882329F00E94B3596B01D8
:103460007C0103C0C12CD12C760183E50E94555A02
:10347000882361F00E94F35920E030E04AE754E4E9
:103480000E940CE40E9405DC6B017C010E94109BF1
:103490000E94F45A8091641290916512A091661274
:1034A000B0916712C80ED91EEA1EFB1E0E94FC6472
:1034B000DC01CB018C199D09AE09BF09B7FD02C023
:1034C0000C944D2D80E00E9476BDF0CF80E00E94EC
:1034D000375B0C944D2D0E94FF2F0C944D2D609165
:1034E000F10370E087E898E00E94028A6091F2039D
:1034F00070E083E898E00E94028A6091F30370E034
:103500008FE798E00E94028A8AE00E94DD5B0C94BB
:103510004D2DC090BA11D090BB11E090BC11F0902D
:10352000BD1188E50E94555A811108C020E030E0A5
:10353000A901C701B6010E94A1DA02C00E94F35995
:1035400068A379A38AA39BA3C090BE11D090BF119A
:10355000E090C011F090C11189E50E94555A811187
:1035600009C020E030E040E752E4C701B6010E9404
:10357000A1DA02C00E94F3596B017C0169837A834E
:103580008B839C834090A2115090A3116090A41152
:103590007090A51120919E1130919F114091A01122
:1035A0005091A11168A179A18AA19BA10E94A0DAE2
:1035B0004B015C012FE632E143E85AEB0E94EADC62
:1035C00087FF02C00C944D2D22E430E048E453E420
:1035D000C501B4010E94A7E3181614F40C944D2DF4
:1035E000A3019201C701B6010E94A0DA6B017C0120
:1035F0002AEF3EEF4FE652E40E94EADC87FF02C06A
:103600000C944D2D22E430E048E453E4C701B601A8
:103610000E94A7E3181614F40C944D2D0C94542D0D
:1036200081E08093A6030C944D2D85E40E94555AA9
:10363000B82E811102C00E94109B0FE6802E02E07E
:10364000902E8AEBC82E81E1D82E90E9E92E93E0E6
:10365000F92E00E010E0A12CD4018D914D010E94C3
:10366000555A882309F44EC0F601208131814281E8
:103670005381C457DF4F2883CC58D040C357DF4F06
:103680003883CD58D040C257DF4F4883CE58D04002
:10369000C157DF4F5883CF58D0400E94F359D6010D
:1036A0006D937D938D939C931397C457DF4F28811F
:1036B000CC58D040C357DF4F3881CD58D040C25787
:1036C000DF4F4881CE58D040C157DF4F5881CF5887
:1036D000D04003301105B1F00E94A0DA9B01AC018B
:1036E000F70160817181828193810E94A1DAD70103
:1036F0006D937D938D939C931397C8010E94BA5844
:10370000AA24A3940F5F1F4FB4E0CB0ED11CE4E0BA
:10371000EE0EF11C0430110509F09ECFAA2019F01D
:103720000E946C5903C0B1100E9421B80E9419C1B7
:103730000C944D2D2091A5123091A61226373105FB
:1037400011F40C9456240CF0DAC02C34310509F431
:103750005DC50CF072C02831310509F4BEC2E4F534
:103760002231310509F431C78CF437FF02C00C94C3
:103770004D2D223031050CF4DDC12131310511F020
:103780000C944D2D0E94FABF0C944D2D253131051E
:1037900009F499C244F42431310511F00C944D2DF3
:1037A000EFE5F2E04DC22631310509F490C2273130
:1037B000310511F00C944D2D40E061E08091A31291
:1037C0009091A4120E946DA461E87EE087EA93E0E4
:1037D0000E94EDDD0C944D2D2E31310509F4D8C237
:1037E000CCF42A31310509F489C20CF481C22B31A1
:1037F000310509F491C22C31310511F00C944D2D95
:1038000040E060E08091A3129091A4120E946DA408
:103810000C944D2D2032310509F4D2C30CF413C49D
:103820002A32310509F4B2C42B34310511F00C945D
:103830004D2D0E94E1B70C944D2D2A36310509F427
:103840007DC6B4F52435310509F4BFC6E4F421354D
:10385000310509F4A4C64CF42D34310511F00C9453
:103860004D2D0E9493AB0C944D2D2235310509F45A
:10387000A8C62335310511F00C944D2D81E08093BD
:10388000A5030C944D2D2C35310509F4F0C634F404
:103890002535310509F4D0C60C944D2D2836310557
:1038A00009F4B8C42936310509F4D3C50C944D2D5B
:1038B0002F36310509F4E0C484F42C36310509F4BF
:1038C0007EC50CF45AC62D36310509F408C62E36CD
:1038D000310509F4BEC40C944D2D2137310509F48E
:1038E00076C50CF470C52237310509F449C7233772
:1038F000310511F00C944D2DE8E2F4E047C7233672
:10390000F1E03F0711F40C94CE2C0CF073C02B3C6B
:10391000310511F40C945C25BCF52C38310509F403
:1039200082C594F42837310511F40C94F3240CF477
:10393000F4C72937310511F00C944D2D1092120265
:10394000109284120C944D2D2E3B310509F4E2C5E2
:1039500034F42B39310509F499C50C944D2D283CCC
:10396000310511F40C94FA24293C310511F00C9422
:103970004D2D60E7E62E66E0F62E0FE612E074E0CD
:10398000D72ED00E0C9444252C3D310511F40C9407
:103990002B27B4F42D3C310511F40C94E32514F4D9
:1039A0000C9479252E3C310511F40C944E26233DC0
:1039B000310511F00C944D2DE7EFFEE10C949526A6
:1039C000223E310511F40C9451273CF42D3D310574
:1039D00011F40C9438270C944D2D2D3251E03507FD
:1039E00011F40C947B272F32314011F40C941928D8
:1039F0000C944D2D273F91E0390711F40C942E2C97
:103A00000CF051C0243AB1E03B0711F40C942D2B7B
:103A1000FCF42139F1E03F0711F40C94252B4CF410
:103A20002039314011F00C944D2D0E94109B0C94C4
:103A30004D2D223981E0380711F40C94292B2A39B5
:103A4000314011F00C944D2D0E9410C10C944D2D5D
:103A5000243FA1E03A0711F40C94282CACF42C3A42
:103A6000314011F00C944D2D93E0C92E94E0D92EE5
:103A70002AEBE22E21E1F22E3FE9232E33E0332E12
:103A800000E010E00C94002C253FF1E03F0711F41A
:103A90000C942B2C263F314011F00C944D2D0E949C
:103AA000EDC80C944D2D273E53E0350711F40C94CE
:103AB000E72CFCF4223593E0390711F40C943C2CEC
:103AC0004CF42835324011F00C944D2D0E94267391
:103AD0000C944D2D2335E3E03E0711F40C947A2C21
:103AE000203A334011F00C944D2D0E947CC40C946C
:103AF0004D2D2E3444E0340711F40C94F72C4CF483
:103B00002D34344011F00C944D2D0E9490700C9483
:103B10004D2D2F3494E0390711F40C94FA2C203BEE
:103B2000344011F00C944D2DE090A312F090A412AB
:103B30000C94032D0091A3121091A41280E50E9411
:103B4000555A882361F00E94B3596B017C01BB2454
:103B5000B394672B682B692B31F4B12C04C0B12CC2
:103B6000C12CD12C760183E50E94555A882399F007
:103B70000E94F35920E030E04AE754E40E940CE44C
:103B80000E9405DC6B017C01B1100CC0672B682B17
:103B9000692B41F43BC0B11005C00115110511F0AE
:103BA0000C94AA2D83E090E090935D1280935C12B8
:103BB00081E08093B5030E94109B0E94F45AC114C7
:103BC000D104E104F104A1F1809164129091651295
:103BD000A0916612B0916712C80ED91EEA1EFB1E94
:103BE0000E94FC64DC01CB018C199D09AE09BF0960
:103BF000B7FD04C01092B5030C944D2D8091B50310
:103C00008823C1F380E00E9476BDEACF011511053B
:103C100011F00C94AA2D83E090E090935D128093B4
:103C20005C1281E08093B5030E94109B0E94F45ABD
:103C30008091B5038823F1F280E00E9476BDF8CF31
:103C400084918F010F5F1F4F882321F00E94DD5B5D
:103C5000F801F6CF109204111092031140E050E0E9
:103C6000BA018EEC9EE00E94E2838BE1EEECFEE076
:103C7000DE01159601900D928A95E1F78091CC0EA8
:103C80009091CD0E9C838B838FEC92E09A838983F5
:103C900040E050E0BE016F5F7F4F80E893E00E94FC
:103CA000BEACCE0101960E94B4BCE0E5F2E0849186
:103CB0008F010F5F1F4F882311F40C944D2D0E942C
:103CC000DD5BF801F4CF0E948CA60C944D2D109270
:103CD0007E0E10927F0E0C944D2D80917F0E8823C6
:103CE00019F081E080937E0E0E94E1B70C944D2D77
:103CF00010927E0E0E945FB80C944D2D80917F0E25
:103D0000882311F40C944D2D83E50E94555A81119E
:103D10000C94CA2D0C944D2D80917F0E882351F167
:103D2000E0E7F2E084918F010F5F1F4F882321F0BD
:103D30000E94DD5BF801F6CF6091FA107091FB10E4
:103D40008091FC109091FD104AE00E94975C8FE2F8
:103D50000E94DD5B6091F6107091F7108091F81071
:103D60009091F9104AE00E94975C8AE00E94DD5B26
:103D70000C944D2DE2E8F2E084918F010F5F1F4F0C
:103D8000882311F40C944D2D0E94DD5BF801F4CFD3
:103D900080917F0E882311F40C944D2D8FEA9EE0C4
:103DA0000E94A1838FEA9EE00E942E8510927D0ED4
:103DB00010927C0EE090A312F090A41280917F0EDE
:103DC000882311F40C944D2D0E943AAB1D82188665
:103DD0001C821B828FEC92E09A8389838AEC9EE09E
:103DE0009093EA0E8093E90EF70180818F3209F0FB
:103DF00068C06FE270E0C7010E94D9DD8C010F5FDF
:103E00001F4F9E012F5F3F4F49010115110509F416
:103E10005EC06FE270E0C8010E94D9DD6C010097BE
:103E200009F456C00817190708F052C05C01A01A1F
:103E3000B10AA501B801CE0180960E9402DEE0E23F
:103E4000F0E0EC0FFD1FEA0DFB1D10828E01005EFD
:103E50001F4FD8018D918D01882319F00E94DD5BE1
:103E6000F8CF8AE00E94DD5B6091E90E7091EA0E66
:103E70006115710511F06C5F7F4F21E0AE01405E6E
:103E80005F4FCE0105960E949087811112C0BE013E
:103E9000605E7F4F89EB92E00E941B8A8EE20E9457
:103EA000DD5B8AE00E94DD5BC4010E94B4BC0C941F
:103EB0004D2D9092EA0E8092E90E86010F5F1F4F02
:103EC000A4CF8BEE9EE09093EA0E8093E90E8701DB
:103ED0006091E90E7091EA0E6115710511F06C5F49
:103EE0007F4F18A21BA222E0A801CE0180960E945B
:103EF0009087811102C0F12C1EC0CE0180960E94D5
:103F0000A8AA8823C1F36CA57DA58EA59FA541E035
:103F10000E946C7F882379F3E8A9B0E2EB9FF0015F
:103F20001124E95EF34F309731F385EE80831BA2B5
:103F30000E942E7FF82ECE0180960E94D05AFF203C
:103F400009F1E3E9F2E084917F012FEFE21AF20A2E
:103F5000882321F00E94DD5BF701F5CFD8018D9118
:103F60008D01882319F00E94DD5BF8CF8AE00E9462
:103F7000DD5B1092FA101092FB101092FC10109260
:103F8000FD1018C0E1EAF2E084917F01BFEFEB1A67
:103F9000FB0A882321F00E94DD5BF701F5CFF801D1
:103FA00081918F01882319F00E94DD5BF8CF8EE2AA
:103FB0000E94DD5BCE0101960E94B4BC0C944D2D95
:103FC00080917E0E81110E94109BE090A312F090D0
:103FD000A41280E50E94265A182F882319F00E9407
:103FE000E459182F80917F0E882311F40C944D2DE5
:103FF000412F61E0C7010E946DA483E50E94555ADC
:10400000882381F00E94C359AB01BC014093FA1090
:104010005093FB106093FC107093FD108FEA9EE0AC
:104020000E94E28361E87EE087EA93E00E94EDDD92
:1040300080917F0E882319F081E080937E0E11110C
:104040000C944D2D51CE0E945DAB1CE3C12ED12CA2
:10405000E12CF12CA70196010E9482E7762E672EB3
:10406000CA01B901A70196010E9482E76B017C0198
:10407000CA01B90128E130E040E050E00E9482E747
:104080004B015C01C9016DE671E00E9454DA8E01BA
:104090000F5F1F4F6115710599F06F927F92DF924C
:1040A000CF929F928F929F938F937F936F9385EF81
:1040B00092E09F938F931F930F930E9478E326C003
:1040C000009789F06F927F92DF92CF929F928F92AA
:1040D0009F938F9385EE92E09F938F931F930F93FF
:1040E0000E9478E313C081149104A104B104B1F0DB
:1040F0006F927F92DF92CF929F928F9289ED92E0A2
:104100009F938F931F930F930E9478E30FB6F894B9
:10411000DEBF0FBECDBFE7EFFEE123C0C114D10467
:10412000E104F10469F06F927F92DF92CF9281ED0A
:1041300092E09F938F931F930F930E9478E3E6CFB3
:104140006F927F928DEC92E09F938F931F930F93CA
:104150000E9478E30F900F900F900F900F900F90A8
:10416000DACF84917F01BFEFEB1AFB0A882321F09D
:104170000E94DD5BF701F5CFB80189E093E00E9472
:104180001B8A8AE00E94DD5B0C944D2D83E50E9422
:10419000555A882311F40C944D2D0E94D359E82EC2
:1041A00080E50E94555A882341F00E94C3598B0133
:1041B00077FF02C00C944D2D02C00DE010E0902F4F
:1041C000EAEDF5E088E28E0F2491921729F03196FE
:1041D0008E13FACF0C94DB2DECEDFEE184918F0170
:1041E0000F5F1F4F882321F00E94DD5BF801F6CF9F
:1041F000E6E1F3E084918F010F5F1F4F882311F4F4
:104200000C944D2D0E94DD5BF801F4CF0E945FB845
:104210000C944D2D88E690E00E94FD5C81110C9479
:104220004D2D8091C00683FF02C00C944D2D83E577
:104230000E94555A882349F00E94F3590E94FFDBDF
:10424000CB010E94A3BC0E94F3590E94438A0C94A4
:104250004D2D8EE40E94555A882311F40C944D2D57
:104260000E94C3596093B8127093B9128093BA1226
:104270009093BB120C944D2D83E50E94555A8823D0
:1042800019F00E94D35901C080E08093C006E7EF87
:10429000FEE184918F010F5F1F4F882321F00E9460
:1042A000DD5BF801F6CFE3E3F3E084918F010F5F6C
:1042B0001F4F882321F00E94DD5BF801F6CF80912B
:1042C000C0068823A1F1B5E2CB2EB3E0DB2EE12CB2
:1042D000F12C20E08091C00690E00E2C02C0959554
:1042E00087950A94E2F780FF17C0BB24B394B20EFF
:1042F000222319F08CE20E94DD5BF60125913491B6
:10430000F901849189010F5F1F4F882321F00E94DA
:10431000DD5B9801F5CF2B2DFFEFEF1AFF0A32E09E
:10432000C30ED11C45E0E416F104A1F643C0EFE250
:10433000F3E084918F010F5F1F4F8823D9F10E9412
:10434000DD5BF801F6CF8AE50E94265A882311F436
:104350000C94A22C0E94F3596B017C0120E030E008
:1043600040EA51EC0E94EADC87FF02C00C94942CD6
:1043700020E030E040EA51E4C701B6010E94A7E323
:10438000181614F40C94942CC0929A11D0929B118C
:10439000E0929C11F0929D1180E00E94B2C0609169
:1043A0009A1170919B1180919C1190919D1142E006
:1043B0000E94C6608AE00E94DD5B0C944D2D109235
:1043C00017020C944D2D8AE393E00E9446BD83E5CD
:1043D0000E94555A882369F00E94D3598D3320F4E6
:1043E000809353020C944D2D8CE3809353020C94D4
:1043F0004D2DE7EFFEE184918F010F5F1F4F882362
:1044000021F00E94DD5BF801F6CF4091530250E0AD
:1044100060E070E083E493E00E943AA28AE00E94A8
:10442000DD5B0C944D2D8091C00683FF02C00C947F
:104430004D2D83E50E94555A882311F40C944D2D7F
:104440000E94F3590E94FFDBCB010E94D65A0C94C4
:104450004D2D89E690E00E94FD5C811111C0EAE4D7
:10446000F3E084918F010F5F1F4F882321F00E949A
:10447000DD5BF801F6CF0E94D8C18AE00E94DD5BC7
:1044800010925D1210925C120C94E52F83E50E944D
:10449000555A882311F40C944D2D0E94D3598D3315
:1044A00008F08CE3809362120E94FC646B017C0133
:1044B0002091621230E0A8EEB3E00E94AEE7DC018A
:1044C000CB018C0D9D1DAE1DBF1D80935E12909380
:1044D0005F12A0936012B09361120C944D2D8DE683
:1044E00090E00E94FD5C81110C944D2D8091C006DE
:1044F00083FF02C00C944D2D83E50E94555A811113
:104500000C94F12D82E50E94555A81110C94F12DE5
:104510000C944D2D8091C00683FF02C00C944D2D4C
:1045200083E50E94555A81110C94032E82E50E9466
:10453000555A81110C94032E0C944D2D83E50E9445
:10454000555A882339F00E94C3598B016F3F71057A
:1045500019F010F00FEF10E080E50E94555A81111C
:1045600006C010933604009335040C944D2D0E9420
:10457000D35981110C944D2DF4CF80E50E94555AEA
:10458000811106C010923604109235040C944D2D02
:104590000E94C359672B11F00C944D2DF3CF0E944C
:1045A00043B10E94109B0E9436BD109236041092B7
:1045B000350468EE73E080E090E00E9437660C946A
:1045C0004D2D1092A5030C944D2D83E50E94555A54
:1045D0008823A1F00E94F35920E030E04AE754E438
:1045E0000E940CE40E9405DC609354027093550213
:1045F00080935602909357020C944D2D88E50E94AB
:10460000265A81110C94132E89E50E94265A811195
:104610000C94132E8AE50E94265A81110C94132EB5
:1046200085E40E94265A81110C94132E0E94109B3F
:104630000E9436BD0C944D2D83E50E94265A882396
:1046400011F40C944D2D0E94F35920E030E04AE71C
:1046500054E40E940CE40E9405DC6093681270939D
:10466000691280936A1290936B120C944D2DFFE6A1
:10467000CF2EF2E0DF2EAAECEA2EA1E1FA2E10E016
:10468000D6018D916D010E94265A882309F46DC0D0
:10469000133009F063C00E94F3594B015C0120E024
:1046A00030E040EA51E40E94A7E387FF4EC0A50135
:1046B00094016091D6117091D7118091D811909189
:1046C000D9110E948EDB2B013C019B01AC01609152
:1046D00054067091550680915606909157060E9497
:1046E0000CE460935406709355068093560690939D
:1046F0005706A301920160918C0670918D068091FE
:104700008E0690918F060E940CE460938C06709345
:104710008D0680938E0690938F066091CD067091E2
:10472000CE068091CF069091D0060E94ABE3A30104
:1047300092010E940CE40E9405DC6093CD06709308
:10474000CE068093CF069093D0068092D611909299
:10475000D711A092D811B092D91107C00E94F35975
:10476000F70160837183828393831F5FF4E0EF0E10
:10477000F11C143009F084CF0E94EA990C944D2D5D
:104780000E94109B0E9419C10C944D2D84918F01A1
:104790000F5F1F4F882321F00E94DD5BF801F6CFE9
:1047A000EAE1F4E084918F010F5F1F4F882321F02D
:1047B0000E94DD5BF801F6CFE3E0F4E084918F0125
:1047C0000F5F1F4F882321F00E94DD5BF801F6CFB9
:1047D000E3EFF3E084918F010F5F1F4F882321F0F7
:1047E0000E94DD5BF801F6CFE2EEF3E084918F01E9
:1047F0000F5F1F4F882321F00E94DD5BF801F6CF89
:10480000E1EDF3E084918F010F5F1F4F882321F0CA
:104810000E94DD5BF801F6CFE2ECF3E084918F01BA
:104820000F5F1F4F882321F00E94DD5BF801F6CF58
:10483000EDEAF3E084918F010F5F1F4F882321F091
:104840000E94DD5BF801F6CFE7E9F3E084918F0188
:104850000F5F1F4F882321F00E94DD5BF801F6CF28
:10486000E2E8F3E084918F010F5F1F4F882321F06E
:104870000E94DD5BF801F6CFE5E6F3E084918F015D
:104880000F5F1F4F882321F00E94DD5BF801F6CFF8
:10489000EDE4F3E084918F010F5F1F4F882311F443
:1048A0000C944D2D0E94DD5BF801F4CF85E40E944D
:1048B000265A882381F00E94E459882361F0E7EFAB
:1048C000FEE184918F010F5F1F4F882321F00E942A
:1048D000DD5BF801F6CF81E40E94265A882381F03F
:1048E0000E94E459882361F0EAEEF4E084918F019C
:1048F0000F5F1F4F882321F00E94DD5BF801F6CF88
:104900000091A3121091A412D8018D918D018823DA
:1049100009F450CD0E94DD5BF7CFE6E0F5E084912D
:104920008F010F5F1F4F882321F00E94DD5BF8018C
:10493000F6CFEEEFF4E084918F010F5F1F4F8823D5
:1049400021F00E94DD5BF801F6CF789B03C00BEDF0
:1049500012E002C000EE12E0F80181918F0188237D
:1049600019F00E94DD5BF8CF8AE00E94DD5BE6EF84
:10497000F4E084918F010F5F1F4F882321F00E9484
:10498000DD5BF801F6CF029B03C00BED12E002C025
:1049900000EE12E0D8018D918D01882319F00E945C
:1049A000DD5BF8CF8AE00E94DD5BEEEEF4E08491FF
:1049B0008F010F5F1F4F882321F00E94DD5BF801FC
:1049C000F6CF8091000183FF03C00BED12E002C01F
:1049D00000EE12E0F80181918F01882309F4EACCFE
:1049E0000E94DD5BF7CF81E08093120280938412F6
:1049F0000C944D2D88EC90E00E94FD5C81110C948C
:104A00004D2D84E40E94265A8823D1F10E94F35947
:104A100011E020E030E0A9010E94A7E3811101C06C
:104A200010E010939406112359F100919E0310E0B9
:104A30000E94F359000F111F000F111FF801E45DD0
:104A4000FD4F608371838283938320E030E0A9016E
:104A500060912C0270912D0280912E0290912F0274
:104A60000E94A7E381110CC080E090E0A0E4B0E4D4
:104A700080932C0290932D02A0932E02B0932F02CC
:104A80000E9406C00C944D2DD8018D918D010E947D
:104A9000265A882349F00E94F3590E9405DCF70149
:104AA0006083718382839383F4E0EF0EF11CD01254
:104AB000EBCF0E94738AF1C740E8E42E46E0F42E63
:104AC0000FE612E054E0D52ED00ED8018D918D0165
:104AD0000E94265A882339F00E94F359F701608317
:104AE000718382839383F4E0EF0EF11CD012EDCF3B
:104AF000D4C783E50E94265A8823D9F00E94F3592F
:104B0000AB01BC0140936C0650936D0660936E063A
:104B100070936F0640936406509365066093660633
:104B2000709367068AE795E00E9474A28AE00E946B
:104B3000DD5B80E50E94265A882399F00E94F35994
:104B4000AB01BC0140936C0650936D0660936E06FA
:104B500070936F068DE595E00E9474A28AE00E9432
:104B6000DD5B82E50E94265A882399F00E94F35962
:104B7000AB01BC01409368065093690660936A06D6
:104B800070936B068EE395E00E9474A28AE00E9407
:104B9000DD5B84E50E94265A882309F47EC70E94C3
:104BA000F359AB01BC0140936406509365066093D2
:104BB00066067093670680E295E00E9474A28AE020
:104BC0000E94DD5B6AC783E50E94265A882351F064
:104BD0000E94F359609360067093610680936206A9
:104BE0009093630684E50E94265A882351F00E9420
:104BF000F359609358067093590680935A06909320
:104C00005B0682E40E94265A882351F00E94B35921
:104C100060935C0670935D0680935E0690935F06DA
:104C200088E50E94265A882351F00E94F359609328
:104C300048067093490680934A0690934B0689E58F
:104C40000E94265A882351F00E94F35960934C0623
:104C500070934D0680934E0690934F068AE50E940E
:104C6000265A882351F00E94F3596093500670939E
:104C70005106809352069093530685E40E94265A6B
:104C8000882309F40AC70E94F3596093540670936D
:104C900055068093560690935706FFC69FE6A92EA9
:104CA00092E0B92E2AEBC22E21E1D22E33E0E32E80
:104CB00034E0F32E00E010E0D5018D915D010E94FB
:104CC000265A882311F10E94F3592B013C01F70168
:104CD00020813181428153810E94A0DA9B01AC0185
:104CE000D6016D917D918D919C910E94A1DAF60182
:104CF0006083718382839383D7014D925D926D921D
:104D00007C921397C8010E94BA580F5F1F4FB4E0FE
:104D1000CB0ED11CE4E0EE0EF11C0330110561F660
:104D20000E946C590E9419C1B8C684918F010F5F0F
:104D30001F4F882321F00E94DD5BF801F6CF83E549
:104D40000E94265A882321F00E94E4598093680229
:104D5000EAECF5E084918F010F5F1F4F882321F06B
:104D60000E94DD5BF801F6CF80916802811103C0DB
:104D7000E6ECF5E002C0E2ECF5E084918F010F5F14
:104D80001F4F882321F00E94DD5BF801F6CFEAEB8C
:104D9000F5E084918F010F5F1F4F882321F00E945F
:104DA000DD5BF801F6CF4091AC125091AD126091ED
:104DB000AE127091AF1288EB95E00E9474A2409100
:104DC000B0125091B1126091B2127091B31285EB92
:104DD00095E00E9474A24091B4125091B512609176
:104DE000B6127091B71282EB95E00E9474A2EAEAC3
:104DF000F5E084918F010F5F1F4F882321F00E94FF
:104E0000DD5BF801F6CF40915C0250915D0260914C
:104E10005E0270915F0288EA95E00E9474A2409160
:104E2000600250916102609162027091630285EAB2
:104E300095E00E9474A240916402509165026091D5
:104E400066027091670282EA95E00E9474A28AE08D
:104E50000E94DD5B22C683E50E94555A882309F42F
:104E60001CC60E94C359709346026093450215C642
:104E70008DED90E00E94FD5C81110FC683E50E94DC
:104E8000555A882309F409C600919E0310E00E9438
:104E9000C359000F111FF801EF5FFD4F718360834D
:104EA000FCC580E50E94265A882309F4F6C50E94B5
:104EB000C3596B017C0183E50E94555A882321F078
:104EC0000E94C3598B0102C00FEF1FEFC80101966A
:104ED000039708F0E2C5D7FCE0C59C2DEAEDF5E0AC
:104EE00088E28E0F2491921709F4D7C531968E135C
:104EF000F9CF0C94BC2F85E40E94555A811110C043
:104F000080E50E94265A882391F00E94F35960930D
:104F100028027093290280932A0290932B0207C0E3
:104F20000E94D359882361F3ECEDFEE171C089E45E
:104F30000E94265A882381F00E94F3592CEA35EC0E
:104F400047E25EE30E940CE4609324027093250222
:104F5000809326029093270284E40E94265A882395
:104F600081F00E94F3592CEA35EC47E25EE30E949F
:104F70008EDB609320027093210280932202909333
:104F80002302E7EFFEE184918F010F5F1F4F88231B
:104F900021F00E94DD5BF801F6CF4091280250918C
:104FA000290260912A0270912B028AE096E00E9409
:104FB00074A22CEA35EC47E25EE360912402709122
:104FC000250280912602909127020E948EDBAB0180
:104FD000BC0186E096E00E9457A22CEA35EC47E23D
:104FE0005EE36091200270912102809122029091F3
:104FF00023020E940CE4AB01BC0182E096E00E9417
:1050000057A28AE00E94DD5B48C50E94DD5BF80183
:1050100084918F010F5F1F4F8111F7CF02EF12E0D4
:10502000D8018D918D01882309F4C4C90E94DD5BEC
:10503000F7CF85E40E94555A882321F00E94C35976
:105040008B0102C000E010E083E40E94555A8823DF
:1050500049F00E94C359CA57DF4F79836883C65805
:10506000D04008C0E5E0F0E0CA57DF4FF983E8839D
:10507000C658D04085E50E94265AED968FAFED9731
:10508000882329F00E94E459ED968FAFED9717FD24
:1050900007C0C12CD12CB6E1EB2EB3E4FB2E06C029
:1050A000C12CD12CACE8EA2EA2E4FA2E83E50E94B2
:1050B000555A882321F00E94F3596B017C01011598
:1050C000110511F410929E0310925D1210925C1261
:1050D0000E94FC644B015C01012B19F403E013E016
:1050E0000EC006E113E0D8018D918D01882319F0DF
:1050F0000E94DD5BF8CF8AE00E94DD5BCEC4F80140
:1051000081918F01882319F00E94DD5BF8CFC701E0
:10511000B6010E94FFDB072E000C880B990B0E9442
:10512000ADE324966FAF24972C967FAF2C976096B3
:105130008FAF609764969FAF64978AE00E94DD5BB3
:105140000E9443B18FE78093411181E08093170261
:10515000C258DF4F88829982AA82BB82CE57D04044
:10516000C857DF4F88829982AA82BB82C858D04034
:10517000A8961FAEA897F0E46896FFAF68972CE159
:105180006C962FAF6C9736E4AC963FAFAC97E09639
:105190001FAEE097A0961FAEA097A4961FAEA4974F
:1051A000E4961FAEE497EC961CAE1DAE1EAE1FAE8D
:1051B000EC97E8961CAE1DAE1EAE1FAEE897C12C54
:1051C000D12C76018FE790E0A0E0B0E08BAF9CAFF0
:1051D000ADAFBEAFFFE74F2E512C612C712CCE57D7
:1051E000DF4F188219821A821B82C258D04091E088
:1051F000EE969FAFEE9729961FAE1EAE2997212CF3
:10520000312C00E010E080911702882309F40DC2D0
:105210000E94FC6423966CAF7DAF8EAF9FAF239747
:1052200080913F11882309F4E1C00E9412B22090BE
:1052300041063090420600914306109144069101C8
:10524000A801E0966FADE097A0967FADA097A496D9
:105250008FADA497E4969FADE4970E94A7E387FFE4
:105260000CC0E0962FAEE097A0963FAEA097A49614
:105270000FAFA497E4961FAFE4979101A801A896F9
:105280006FADA89768967FAD68976C968FAD6C9759
:10529000AC969FADAC970E94EADC181664F4A89611
:1052A0002FAEA89768963FAE68976C960FAF6C9735
:1052B000AC961FAFAC97EE96AFADEE9724962FADA0
:1052C00024972C963FAD2C9760964FAD60976496CF
:1052D0005FAD6497B101C801AA2309F469C00E94B7
:1052E000EADC18160CF082C023962CAD3DAD4EAD15
:1052F0005FAD2397281939094A095B09C057DF4F69
:10530000288339834A835B83C059D040DA01C901BD
:1053100088589341A109B109B7FD68C0D301C20102
:105320002BAD3CAD4DAD5EAD821B930BA40BB50B0D
:10533000B595A7959795879580934111C057DF4FF5
:1053400088819981AA81BB81C059D040CE57DF4F57
:1053500088839983AA83BB83C258D04024969FAD8B
:105360002497E0969FAFE0972C96AFAD2C97A09630
:10537000AFAFA0976096BFAD6097A496BFAFA4975C
:105380006496EFAD6497E496EFAFE49723962CAD67
:105390003DAD4EAD5FAD2397C258DF4F28833983B3
:1053A0004A835B83CE57D040EE961FAEEE971EC069
:1053B0000E94A7E387FF1AC023968CAD9DADAEADCA
:1053C000BFAD2397C258DF4F288139814A815B8165
:1053D000CE57D040821B930BA40BB50BAC01BD0183
:1053E000485853416109710977FF47C420E030E014
:1053F00040EF51E424966FAD24972C967FAD2C9707
:1054000060968FAD609764969FAD64970E94A1DA15
:105410009B01AC01B101C8010E94EADC1816E4F45A
:10542000EFE0F7E084918F010F5F1F4F882321F099
:105430000E94DD5BF801F6CF8091F4039091F503B3
:1054400088609093F5038093F40340E060E085EE7C
:1054500096E00E94066721C380E398EFAFEFBFEFAD
:10546000C857DF4F288139814A815B81C858D040B5
:10547000821B930BA40BB50B23962CAD3DAD4EAD0B
:105480005FAD2397820F931FA41FB51FB7FD13C0F5
:105490000E94D8C18AE00E94DD5B23968CAD9DAD51
:1054A000AEADBFAD2397C857DF4F88839983AA83DA
:1054B000BB83C858D04023968CAD9DADAEADBFAD7B
:1054C0002397880F991FAA1FBB1FC258DF4F28813F
:1054D00039814A815B81CE57D040821B930BA40B4C
:1054E000B50B88199909AA09BB0981389F44A241C3
:1054F000B105E0F0E7ECF6E084918F010F5F1F4FFC
:10550000882321F00E94DD5BF801F6CF8091F4033F
:105510009091F50388609093F5038093F40340E045
:1055200060E08AEA96E00E940667B7C229964EAD0F
:105530005FAD2997CA57DF4F88819981C658D040FF
:10554000841795070CF06EC0EDE4F6E084918F01AE
:105550000F5F1F4F882321F00E94DD5BF801F6CF1B
:10556000B701A60188E396E00E9474A28AE00E9437
:10557000DD5BE8964CAD5DAD6EAD7FADE89783E247
:1055800096E00E9474A28AE00E94DD5BEC964CAD2E
:105590005DAD6EAD7FADEC978EE096E00E9474A29B
:1055A0008AE00E94DD5BED969FADED97992381F136
:1055B000C0922802D0922902E0922A02F0922B0295
:1055C0002CEA35EC47E25EE3E8966CAD7DAD8EAD3E
:1055D0009FADE8970E940CE460932402709325022B
:1055E00080932602909327022CEA35EC47E25EE393
:1055F000EC966CAD7DAD8EAD9FADEC970E948EDBD1
:1056000060932002709321028093220290932302E0
:105610008091F4039091F50388609093F503809353
:10562000F4033BC20E944548EECD809117028111E0
:1056300002C00E9443B18091F4039091F503886009
:105640009093F5038093F40328C281E00E9471587F
:1056500024C280E00E94715820C286E50E94265A2A
:10566000882321F080EB97E00E9448CE83E50E94DA
:10567000265A182F882319F00E94E459182F83E521
:105680000E94265A882319F0812F0E941856FF2461
:10569000F3948091BB06811101C0F12C111103C05C
:1056A000E7EFFEE11AC0F110FBCFECEDFEE18491D3
:1056B0008F010F5F1F4F882321F00E94DD5BF801EF
:1056C000F6CFE1E9F7E084918F010F5F1F4F882348
:1056D00039F30E94DD5BF801F6CF84918F010F5FF3
:1056E0001F4F882321F00E94DD5BF801F6CFF110F7
:1056F00003C06EEE72E002C06AEE72E083E897E0EB
:105700000E941B8A8AE00E94DD5BC7C1D7014D90D1
:105710005D906D907C90F801E45AFD4F20813181BD
:1057200042815381F801E455FD4E6081718182818F
:1057300093810E94A1DA20E030E040E05FE30E9424
:105740000CE49B01AC01C301B2010E94EADC181613
:105750000CF061C0F801E353F84F85909590A59047
:10576000B490F801E256FE4E20813181428153818E
:10577000C301B2010E94A0DA9B01AC01C501B401D2
:105780000E94A0DA4B015C0120E030E040EA51ECDD
:105790000E94EADC87FD43C020E030E040EA51E4AB
:1057A000C501B4010E94A7E31816CCF1F6012081CF
:1057B000318142815381C501B4010E94A0DA9B016D
:1057C000AC01C301B2010E94A1DAD7016D937D93B0
:1057D0008D939C931397F60180829182A282B3826B
:1057E0008BAD9CAD0E94BA58F4E0CF0ED11C0C5F7B
:1057F0001F4F24E0E20EF11C0C30110509F490CA91
:10580000D101AF59B340BCAFABAFF10181911F01E2
:10581000882351F37BCF812C912C5401A2CFECED46
:10582000FEE184918F010F5F1F4F882321F00E94BA
:10583000DD5BF801F6CFE9EDF7E084918F010F5FB2
:105840001F4F882309F429C10E94DD5BF801F5CFC1
:105850000E947D7722C10E94B27A1FC183E50E9417
:10586000265A882319F00E94E45901C081E091E092
:1058700089270E94F5C411C110E0113079F012306F
:10588000D1F0EDE0F8E084917F013FEFE31AF30AF5
:10589000882359F10E94DD5BF701F5CFE4E1F8E0E0
:1058A00084917F014FEFE41AF40A8823F1F00E94FB
:1058B000DD5BF701F5CFECE1F8E084917F015FEF6C
:1058C000E51AF50A882321F00E94DD5BF701F5CF88
:1058D000E7EFF7E084917F019FEFE91AF90A882347
:1058E00021F00E94DD5BF701F5CF1F5F133009F057
:1058F000C4CFD3C0E7EFFEE184918F010F5F1F4F4C
:10590000882321F00E94DD5BF801F6CFE3E5F8E0A3
:1059100084918F010F5F1F4F882311F40C94A321F2
:105920000E94DD5BF801F4CFECE3F8E084918F0195
:105930000F5F1F4F882311F40C94DA210E94DD5B66
:10594000F801F4CF40919A1150919B1160919C11F4
:1059500070919D1189E398E00E9474A28091BB062A
:10596000882371F0E1E2F8E084918F010F5F1F4F0F
:10597000882311F40C94DA210E94DD5BF801F4CF46
:10598000EDE2F8E084918F010F5F1F4F882311F43F
:105990000C94DA210E94DD5BF801F4CFECEDFEE11E
:1059A00084918F010F5F1F4F882321F00E94DD5BE0
:1059B000F801F6CFEDE5F8E084918F010F5F1F4FFE
:1059C000882309F46AC00E94DD5BF801F5CF81E00D
:1059D0008093030283E50E94265A811103C00E942E
:1059E000BDCF5BC00E94E459811157C0F8CF0E941F
:1059F000226D53C00E94357050C0113029F4D92A4D
:105A00008D2D0E946C6210E0F7018081982F9F7DA0
:105A100091549630E0F40E94DD5BD7019D917D01A9
:105A2000903291F38FEB890F863010F4975307C0B3
:105A30008FE9890F863010F4975501C090531111EA
:105A4000DCCFD92ED29480EFD82211E0DDCF90EDBB
:105A5000980F9A3000F38032F1F21FC08091A512A6
:105A60000E9446701AC0E7EFFEE184918F010F5F3C
:105A70001F4F882321F00E94DD5BF801F6CF609173
:105A8000A8127091A9128CE698E00E941B8A82E20B
:105A90000E94DD5B8AE00E94DD5B10925D12109235
:105AA0005C120E9493C091C280E00E9418560E942E
:105AB000185B83E50E94265A882309F449C00E9496
:105AC000E45921E0482FBE016F5F7F4FCE018096E1
:105AD0000E9479B86B017C019B01AC010E9475DDCD
